{
  "_format": "hh-sol-artifact-1",
  "contractName": "RealEstateBuy",
  "sourceName": "contracts/RealEstateBuy.sol",
  "abi": [
    {
      "inputs": [],
      "stateMutability": "nonpayable",
      "type": "constructor"
    },
    {
      "anonymous": false,
      "inputs": [
        {
          "indexed": true,
          "internalType": "uint256",
          "name": "propertyId",
          "type": "uint256"
        },
        {
          "indexed": false,
          "internalType": "string",
          "name": "name",
          "type": "string"
        },
        {
          "indexed": false,
          "internalType": "string",
          "name": "location",
          "type": "string"
        },
        {
          "indexed": false,
          "internalType": "string",
          "name": "description",
          "type": "string"
        },
        {
          "indexed": false,
          "internalType": "string",
          "name": "imageURI",
          "type": "string"
        },
        {
          "indexed": false,
          "internalType": "uint256",
          "name": "totalSupply",
          "type": "uint256"
        },
        {
          "indexed": false,
          "internalType": "uint256",
          "name": "totalNumberOfTokens",
          "type": "uint256"
        },
        {
          "indexed": false,
          "internalType": "uint256",
          "name": "pricePerToken",
          "type": "uint256"
        }
      ],
      "name": "PropertyCreated",
      "type": "event"
    },
    {
      "anonymous": false,
      "inputs": [
        {
          "indexed": true,
          "internalType": "uint256",
          "name": "propertyId",
          "type": "uint256"
        },
        {
          "indexed": true,
          "internalType": "address",
          "name": "buyer",
          "type": "address"
        },
        {
          "indexed": false,
          "internalType": "uint256",
          "name": "amount",
          "type": "uint256"
        }
      ],
      "name": "PropertyPurchased",
      "type": "event"
    },
    {
      "anonymous": false,
      "inputs": [
        {
          "indexed": true,
          "internalType": "uint256",
          "name": "propertyId",
          "type": "uint256"
        },
        {
          "indexed": true,
          "internalType": "address",
          "name": "buyer",
          "type": "address"
        },
        {
          "indexed": false,
          "internalType": "uint256",
          "name": "amount",
          "type": "uint256"
        }
      ],
      "name": "PropertySold",
      "type": "event"
    },
    {
      "anonymous": false,
      "inputs": [
        {
          "indexed": true,
          "internalType": "uint256",
          "name": "propertyId",
          "type": "uint256"
        },
        {
          "indexed": false,
          "internalType": "string",
          "name": "name",
          "type": "string"
        },
        {
          "indexed": false,
          "internalType": "string",
          "name": "location",
          "type": "string"
        },
        {
          "indexed": false,
          "internalType": "string",
          "name": "description",
          "type": "string"
        },
        {
          "indexed": false,
          "internalType": "string",
          "name": "imageURI",
          "type": "string"
        },
        {
          "indexed": false,
          "internalType": "uint256",
          "name": "totalSupply",
          "type": "uint256"
        },
        {
          "indexed": false,
          "internalType": "uint256",
          "name": "totalNumberOfTokens",
          "type": "uint256"
        },
        {
          "indexed": false,
          "internalType": "uint256",
          "name": "pricePerToken",
          "type": "uint256"
        }
      ],
      "name": "PropertyUpdated",
      "type": "event"
    },
    {
      "inputs": [
        {
          "internalType": "string",
          "name": "name",
          "type": "string"
        },
        {
          "internalType": "string",
          "name": "location",
          "type": "string"
        },
        {
          "internalType": "string",
          "name": "description",
          "type": "string"
        },
        {
          "internalType": "string",
          "name": "imageURI",
          "type": "string"
        },
        {
          "internalType": "uint256",
          "name": "totalCost",
          "type": "uint256"
        },
        {
          "internalType": "uint256",
          "name": "totalNumberOfTokens",
          "type": "uint256"
        },
        {
          "internalType": "uint256",
          "name": "pricePerToken",
          "type": "uint256"
        }
      ],
      "name": "createProperty",
      "outputs": [],
      "stateMutability": "nonpayable",
      "type": "function"
    },
    {
      "inputs": [],
      "name": "getAllProperties",
      "outputs": [
        {
          "components": [
            {
              "internalType": "uint256",
              "name": "propertyId",
              "type": "uint256"
            },
            {
              "internalType": "string",
              "name": "name",
              "type": "string"
            },
            {
              "internalType": "string",
              "name": "location",
              "type": "string"
            },
            {
              "internalType": "string",
              "name": "description",
              "type": "string"
            },
            {
              "internalType": "string",
              "name": "imageURI",
              "type": "string"
            },
            {
              "internalType": "uint256",
              "name": "totalCost",
              "type": "uint256"
            },
            {
              "internalType": "uint256",
              "name": "totalNumberOfTokens",
              "type": "uint256"
            },
            {
              "internalType": "uint256",
              "name": "pricePerToken",
              "type": "uint256"
            },
            {
              "internalType": "bool",
              "name": "isActive",
              "type": "bool"
            }
          ],
          "internalType": "struct RealEstateBuy.Property[]",
          "name": "",
          "type": "tuple[]"
        }
      ],
      "stateMutability": "view",
      "type": "function"
    },
    {
      "inputs": [
        {
          "internalType": "uint256",
          "name": "propertyId",
          "type": "uint256"
        }
      ],
      "name": "getMyTokens",
      "outputs": [
        {
          "internalType": "uint256",
          "name": "",
          "type": "uint256"
        }
      ],
      "stateMutability": "view",
      "type": "function"
    },
    {
      "inputs": [
        {
          "internalType": "uint256",
          "name": "propertyId",
          "type": "uint256"
        }
      ],
      "name": "getPropertyDetails",
      "outputs": [
        {
          "internalType": "string",
          "name": "name",
          "type": "string"
        },
        {
          "internalType": "string",
          "name": "location",
          "type": "string"
        },
        {
          "internalType": "string",
          "name": "description",
          "type": "string"
        },
        {
          "internalType": "string",
          "name": "imageURI",
          "type": "string"
        },
        {
          "internalType": "uint256",
          "name": "totalCost",
          "type": "uint256"
        },
        {
          "internalType": "uint256",
          "name": "totalNumberOfTokens",
          "type": "uint256"
        },
        {
          "internalType": "uint256",
          "name": "pricePerToken",
          "type": "uint256"
        },
        {
          "internalType": "bool",
          "name": "isActive",
          "type": "bool"
        }
      ],
      "stateMutability": "view",
      "type": "function"
    },
    {
      "inputs": [
        {
          "internalType": "uint256",
          "name": "",
          "type": "uint256"
        }
      ],
      "name": "propertiesList",
      "outputs": [
        {
          "internalType": "uint256",
          "name": "propertyId",
          "type": "uint256"
        },
        {
          "internalType": "string",
          "name": "name",
          "type": "string"
        },
        {
          "internalType": "string",
          "name": "location",
          "type": "string"
        },
        {
          "internalType": "string",
          "name": "description",
          "type": "string"
        },
        {
          "internalType": "string",
          "name": "imageURI",
          "type": "string"
        },
        {
          "internalType": "uint256",
          "name": "totalCost",
          "type": "uint256"
        },
        {
          "internalType": "uint256",
          "name": "totalNumberOfTokens",
          "type": "uint256"
        },
        {
          "internalType": "uint256",
          "name": "pricePerToken",
          "type": "uint256"
        },
        {
          "internalType": "bool",
          "name": "isActive",
          "type": "bool"
        }
      ],
      "stateMutability": "view",
      "type": "function"
    },
    {
      "inputs": [
        {
          "internalType": "uint256",
          "name": "propertyId",
          "type": "uint256"
        },
        {
          "internalType": "uint256",
          "name": "tokensToPurchase",
          "type": "uint256"
        }
      ],
      "name": "purchasePropertyTokens",
      "outputs": [],
      "stateMutability": "payable",
      "type": "function"
    },
    {
      "inputs": [
        {
          "internalType": "uint256",
          "name": "propertyId",
          "type": "uint256"
        },
        {
          "internalType": "uint256",
          "name": "amount",
          "type": "uint256"
        }
      ],
      "name": "sellPropertyTokens",
      "outputs": [],
      "stateMutability": "nonpayable",
      "type": "function"
    },
    {
      "inputs": [
        {
          "internalType": "uint256",
          "name": "",
          "type": "uint256"
        },
        {
          "internalType": "address",
          "name": "",
          "type": "address"
        }
      ],
      "name": "tokenOwnership",
      "outputs": [
        {
          "internalType": "uint256",
          "name": "",
          "type": "uint256"
        }
      ],
      "stateMutability": "view",
      "type": "function"
    }
  ],
  "bytecode": "0x6080604052348015600f57600080fd5b5061202c8061001f6000396000f3fe60806040526004361061007b5760003560e01c8063439930b61161004e578063439930b61461014857806395eccf5a1461018d578063bd4d9359146101b6578063d2a96e13146101f35761007b565b80630453497c1461008057806308d320391461009c578063126dbe43146100d95780633d51402c1461011d575b600080fd5b61009a600480360381019061009591906111d9565b61021c565b005b3480156100a857600080fd5b506100c360048036038101906100be9190611219565b610449565b6040516100d09190611255565b60405180910390f35b3480156100e557600080fd5b5061010060048036038101906100fb9190611219565b6104a3565b60405161011498979695949392919061131b565b60405180910390f35b34801561012957600080fd5b50610132610751565b60405161013f91906115b9565b60405180910390f35b34801561015457600080fd5b5061016f600480360381019061016a9190611219565b610aab565b604051610184999897969594939291906115db565b60405180910390f35b34801561019957600080fd5b506101b460048036038101906101af91906117b9565b610d36565b005b3480156101c257600080fd5b506101dd60048036038101906101d89190611929565b610e9e565b6040516101ea9190611255565b60405180910390f35b3480156101ff57600080fd5b5061021a600480360381019061021591906111d9565b610ec3565b005b600080838154811061023157610230611969565b5b906000526020600020906009020190508060080160009054906101000a900460ff16610292576040517f08c379a0000000000000000000000000000000000000000000000000000000008152600401610289906119e4565b60405180910390fd5b600082116102d5576040517f08c379a00000000000000000000000000000000000000000000000000000000081526004016102cc90611a50565b60405180910390fd5b806006015482111561031c576040517f08c379a000000000000000000000000000000000000000000000000000000000815260040161031390611abc565b60405180910390fd5b600081600701548361032e9190611b0b565b9050803414610372576040517f08c379a000000000000000000000000000000000000000000000000000000000815260040161036990611b99565b60405180910390fd5b828260060160008282546103869190611bb9565b92505081905550826001600086815260200190815260200160002060003373ffffffffffffffffffffffffffffffffffffffff1673ffffffffffffffffffffffffffffffffffffffff16815260200190815260200160002060008282546103ed9190611bed565b925050819055503373ffffffffffffffffffffffffffffffffffffffff16847ff447ba1e674406290752c644bdc71e4be50aa21042f65ed5e9a0b140a3835e268560405161043b9190611255565b60405180910390a350505050565b60006001600083815260200190815260200160002060003373ffffffffffffffffffffffffffffffffffffffff1673ffffffffffffffffffffffffffffffffffffffff168152602001908152602001600020549050919050565b6060806060806000806000806000808a815481106104c4576104c3611969565b5b90600052602060002090600902019050806001018160020182600301836004018460050154856006015486600701548760080160009054906101000a900460ff1687805461051190611c50565b80601f016020809104026020016040519081016040528092919081815260200182805461053d90611c50565b801561058a5780601f1061055f5761010080835404028352916020019161058a565b820191906000526020600020905b81548152906001019060200180831161056d57829003601f168201915b5050505050975086805461059d90611c50565b80601f01602080910402602001604051908101604052809291908181526020018280546105c990611c50565b80156106165780601f106105eb57610100808354040283529160200191610616565b820191906000526020600020905b8154815290600101906020018083116105f957829003601f168201915b5050505050965085805461062990611c50565b80601f016020809104026020016040519081016040528092919081815260200182805461065590611c50565b80156106a25780601f10610677576101008083540402835291602001916106a2565b820191906000526020600020905b81548152906001019060200180831161068557829003601f168201915b505050505095508480546106b590611c50565b80601f01602080910402602001604051908101604052809291908181526020018280546106e190611c50565b801561072e5780601f106107035761010080835404028352916020019161072e565b820191906000526020600020905b81548152906001019060200180831161071157829003601f168201915b505050505094509850985098509850985098509850985050919395975091939597565b60606000808054905067ffffffffffffffff8111156107735761077261168e565b5b6040519080825280602002602001820160405280156107ac57816020015b610799611141565b8152602001906001900390816107915790505b50905060005b600080549050811015610aa357600081815481106107d3576107d2611969565b5b9060005260206000209060090201604051806101200160405290816000820154815260200160018201805461080790611c50565b80601f016020809104026020016040519081016040528092919081815260200182805461083390611c50565b80156108805780601f1061085557610100808354040283529160200191610880565b820191906000526020600020905b81548152906001019060200180831161086357829003601f168201915b5050505050815260200160028201805461089990611c50565b80601f01602080910402602001604051908101604052809291908181526020018280546108c590611c50565b80156109125780601f106108e757610100808354040283529160200191610912565b820191906000526020600020905b8154815290600101906020018083116108f557829003601f168201915b5050505050815260200160038201805461092b90611c50565b80601f016020809104026020016040519081016040528092919081815260200182805461095790611c50565b80156109a45780601f10610979576101008083540402835291602001916109a4565b820191906000526020600020905b81548152906001019060200180831161098757829003601f168201915b505050505081526020016004820180546109bd90611c50565b80601f01602080910402602001604051908101604052809291908181526020018280546109e990611c50565b8015610a365780601f10610a0b57610100808354040283529160200191610a36565b820191906000526020600020905b815481529060010190602001808311610a1957829003601f168201915b505050505081526020016005820154815260200160068201548152602001600782015481526020016008820160009054906101000a900460ff161515151581525050828281518110610a8b57610a8a611969565b5b602002602001018190525080806001019150506107b2565b508091505090565b60008181548110610abb57600080fd5b9060005260206000209060090201600091509050806000015490806001018054610ae490611c50565b80601f0160208091040260200160405190810160405280929190818152602001828054610b1090611c50565b8015610b5d5780601f10610b3257610100808354040283529160200191610b5d565b820191906000526020600020905b815481529060010190602001808311610b4057829003601f168201915b505050505090806002018054610b7290611c50565b80601f0160208091040260200160405190810160405280929190818152602001828054610b9e90611c50565b8015610beb5780601f10610bc057610100808354040283529160200191610beb565b820191906000526020600020905b815481529060010190602001808311610bce57829003601f168201915b505050505090806003018054610c0090611c50565b80601f0160208091040260200160405190810160405280929190818152602001828054610c2c90611c50565b8015610c795780601f10610c4e57610100808354040283529160200191610c79565b820191906000526020600020905b815481529060010190602001808311610c5c57829003601f168201915b505050505090806004018054610c8e90611c50565b80601f0160208091040260200160405190810160405280929190818152602001828054610cba90611c50565b8015610d075780601f10610cdc57610100808354040283529160200191610d07565b820191906000526020600020905b815481529060010190602001808311610cea57829003601f168201915b5050505050908060050154908060060154908060070154908060080160009054906101000a900460ff16905089565b60008080549050905060006040518061012001604052808381526020018a8152602001898152602001888152602001878152602001868152602001858152602001848152602001600115158152509080600181540180825580915050600190039060005260206000209060090201600090919091909150600082015181600001556020820151816001019081610dcc9190611e2d565b506040820151816002019081610de29190611e2d565b506060820151816003019081610df89190611e2d565b506080820151816004019081610e0e9190611e2d565b5060a0820151816005015560c0820151816006015560e082015181600701556101008201518160080160006101000a81548160ff0219169083151502179055505050807f3faa87310e0ae4478cf0a91b309858ff15023e2b519b3a24cd8ab3831fc9e3cc89898989898989604051610e8c9796959493929190611eff565b60405180910390a25050505050505050565b6001602052816000526040600020602052806000526040600020600091509150505481565b6000808381548110610ed857610ed7611969565b5b906000526020600020906009020190508060080160009054906101000a900460ff16610f39576040517f08c379a0000000000000000000000000000000000000000000000000000000008152600401610f30906119e4565b60405180910390fd5b60008211610f7c576040517f08c379a0000000000000000000000000000000000000000000000000000000008152600401610f7390611a50565b60405180910390fd5b816001600085815260200190815260200160002060003373ffffffffffffffffffffffffffffffffffffffff1673ffffffffffffffffffffffffffffffffffffffff16815260200190815260200160002054101561100f576040517f08c379a000000000000000000000000000000000000000000000000000000000815260040161100690611fd6565b60405180910390fd5b816001600085815260200190815260200160002060003373ffffffffffffffffffffffffffffffffffffffff1673ffffffffffffffffffffffffffffffffffffffff168152602001908152602001600020600082825461106f9190611bb9565b925050819055508181600601600082825461108a9190611bed565b9250508190555060008160070154836110a39190611b0b565b90503373ffffffffffffffffffffffffffffffffffffffff166108fc829081150290604051600060405180830381858888f193505050501580156110eb573d6000803e3d6000fd5b503373ffffffffffffffffffffffffffffffffffffffff16847ff17a6666765db393a6218bb324c4de5cc60c9ee3b981bd102ba416effc13b895856040516111339190611255565b60405180910390a350505050565b60405180610120016040528060008152602001606081526020016060815260200160608152602001606081526020016000815260200160008152602001600081526020016000151581525090565b6000604051905090565b600080fd5b600080fd5b6000819050919050565b6111b6816111a3565b81146111c157600080fd5b50565b6000813590506111d3816111ad565b92915050565b600080604083850312156111f0576111ef611199565b5b60006111fe858286016111c4565b925050602061120f858286016111c4565b9150509250929050565b60006020828403121561122f5761122e611199565b5b600061123d848285016111c4565b91505092915050565b61124f816111a3565b82525050565b600060208201905061126a6000830184611246565b92915050565b600081519050919050565b600082825260208201905092915050565b60005b838110156112aa57808201518184015260208101905061128f565b60008484015250505050565b6000601f19601f8301169050919050565b60006112d282611270565b6112dc818561127b565b93506112ec81856020860161128c565b6112f5816112b6565b840191505092915050565b60008115159050919050565b61131581611300565b82525050565b6000610100820190508181036000830152611336818b6112c7565b9050818103602083015261134a818a6112c7565b9050818103604083015261135e81896112c7565b9050818103606083015261137281886112c7565b90506113816080830187611246565b61138e60a0830186611246565b61139b60c0830185611246565b6113a860e083018461130c565b9998505050505050505050565b600081519050919050565b600082825260208201905092915050565b6000819050602082019050919050565b6113ea816111a3565b82525050565b600082825260208201905092915050565b600061140c82611270565b61141681856113f0565b935061142681856020860161128c565b61142f816112b6565b840191505092915050565b61144381611300565b82525050565b60006101208301600083015161146260008601826113e1565b506020830151848203602086015261147a8282611401565b915050604083015184820360408601526114948282611401565b915050606083015184820360608601526114ae8282611401565b915050608083015184820360808601526114c88282611401565b91505060a08301516114dd60a08601826113e1565b5060c08301516114f060c08601826113e1565b5060e083015161150360e08601826113e1565b5061010083015161151861010086018261143a565b508091505092915050565b600061152f8383611449565b905092915050565b6000602082019050919050565b600061154f826113b5565b61155981856113c0565b93508360208202850161156b856113d1565b8060005b858110156115a757848403895281516115888582611523565b945061159383611537565b925060208a0199505060018101905061156f565b50829750879550505050505092915050565b600060208201905081810360008301526115d38184611544565b905092915050565b6000610120820190506115f1600083018c611246565b8181036020830152611603818b6112c7565b90508181036040830152611617818a6112c7565b9050818103606083015261162b81896112c7565b9050818103608083015261163f81886112c7565b905061164e60a0830187611246565b61165b60c0830186611246565b61166860e0830185611246565b61167661010083018461130c565b9a9950505050505050505050565b600080fd5b600080fd5b7f4e487b7100000000000000000000000000000000000000000000000000000000600052604160045260246000fd5b6116c6826112b6565b810181811067ffffffffffffffff821117156116e5576116e461168e565b5b80604052505050565b60006116f861118f565b905061170482826116bd565b919050565b600067ffffffffffffffff8211156117245761172361168e565b5b61172d826112b6565b9050602081019050919050565b82818337600083830152505050565b600061175c61175784611709565b6116ee565b90508281526020810184848401111561177857611777611689565b5b61178384828561173a565b509392505050565b600082601f8301126117a05761179f611684565b5b81356117b0848260208601611749565b91505092915050565b600080600080600080600060e0888a0312156117d8576117d7611199565b5b600088013567ffffffffffffffff8111156117f6576117f561119e565b5b6118028a828b0161178b565b975050602088013567ffffffffffffffff8111156118235761182261119e565b5b61182f8a828b0161178b565b965050604088013567ffffffffffffffff8111156118505761184f61119e565b5b61185c8a828b0161178b565b955050606088013567ffffffffffffffff81111561187d5761187c61119e565b5b6118898a828b0161178b565b945050608061189a8a828b016111c4565b93505060a06118ab8a828b016111c4565b92505060c06118bc8a828b016111c4565b91505092959891949750929550565b600073ffffffffffffffffffffffffffffffffffffffff82169050919050565b60006118f6826118cb565b9050919050565b611906816118eb565b811461191157600080fd5b50565b600081359050611923816118fd565b92915050565b600080604083850312156119405761193f611199565b5b600061194e858286016111c4565b925050602061195f85828601611914565b9150509250929050565b7f4e487b7100000000000000000000000000000000000000000000000000000000600052603260045260246000fd5b7f50726f7065727479206973206e6f742061637469766500000000000000000000600082015250565b60006119ce60168361127b565b91506119d982611998565b602082019050919050565b600060208201905081810360008301526119fd816119c1565b9050919050565b7f416d6f756e74206d7573742062652067726561746572207468616e2030000000600082015250565b6000611a3a601d8361127b565b9150611a4582611a04565b602082019050919050565b60006020820190508181036000830152611a6981611a2d565b9050919050565b7f4e6f7420656e6f75676820746f6b656e7320617661696c61626c650000000000600082015250565b6000611aa6601b8361127b565b9150611ab182611a70565b602082019050919050565b60006020820190508181036000830152611ad581611a99565b9050919050565b7f4e487b7100000000000000000000000000000000000000000000000000000000600052601160045260246000fd5b6000611b16826111a3565b9150611b21836111a3565b9250828202611b2f816111a3565b91508282048414831517611b4657611b45611adc565b5b5092915050565b7f496e636f727265637420616d6f756e742073656e740000000000000000000000600082015250565b6000611b8360158361127b565b9150611b8e82611b4d565b602082019050919050565b60006020820190508181036000830152611bb281611b76565b9050919050565b6000611bc4826111a3565b9150611bcf836111a3565b9250828203905081811115611be757611be6611adc565b5b92915050565b6000611bf8826111a3565b9150611c03836111a3565b9250828201905080821115611c1b57611c1a611adc565b5b92915050565b7f4e487b7100000000000000000000000000000000000000000000000000000000600052602260045260246000fd5b60006002820490506001821680611c6857607f821691505b602082108103611c7b57611c7a611c21565b5b50919050565b60008190508160005260206000209050919050565b60006020601f8301049050919050565b600082821b905092915050565b600060088302611ce37fffffffffffffffffffffffffffffffffffffffffffffffffffffffffffffffff82611ca6565b611ced8683611ca6565b95508019841693508086168417925050509392505050565b6000819050919050565b6000611d2a611d25611d20846111a3565b611d05565b6111a3565b9050919050565b6000819050919050565b611d4483611d0f565b611d58611d5082611d31565b848454611cb3565b825550505050565b600090565b611d6d611d60565b611d78818484611d3b565b505050565b5b81811015611d9c57611d91600082611d65565b600181019050611d7e565b5050565b601f821115611de157611db281611c81565b611dbb84611c96565b81016020851015611dca578190505b611dde611dd685611c96565b830182611d7d565b50505b505050565b600082821c905092915050565b6000611e0460001984600802611de6565b1980831691505092915050565b6000611e1d8383611df3565b9150826002028217905092915050565b611e3682611270565b67ffffffffffffffff811115611e4f57611e4e61168e565b5b611e598254611c50565b611e64828285611da0565b600060209050601f831160018114611e975760008415611e85578287015190505b611e8f8582611e11565b865550611ef7565b601f198416611ea586611c81565b60005b82811015611ecd57848901518255600182019150602085019450602081019050611ea8565b86831015611eea5784890151611ee6601f891682611df3565b8355505b6001600288020188555050505b505050505050565b600060e0820190508181036000830152611f19818a6112c7565b90508181036020830152611f2d81896112c7565b90508181036040830152611f4181886112c7565b90508181036060830152611f5581876112c7565b9050611f646080830186611246565b611f7160a0830185611246565b611f7e60c0830184611246565b98975050505050505050565b7f596f7520646f6e2774206f776e20656e6f75676820746f6b656e730000000000600082015250565b6000611fc0601b8361127b565b9150611fcb82611f8a565b602082019050919050565b60006020820190508181036000830152611fef81611fb3565b905091905056fea2646970667358221220e5d8bc83fd70d8c0fb8ad2be717bb82c4c33aa3546b4df2c9737ded9367bf34a64736f6c634300081c0033",
  "linkReferences": {},
  "deployedLinkReferences": {}
}